:020000020000FC
:10000000549A559A569A579A209A219A259A2F933C
:100010008F939F9325E08EE39CE90197F1F72A9552
:10002000D1F700009F918F912F91289829980F93D5
:1000300003E05F985E985D985C98289807FD5F9A4A
:1000400006FD5E9A05FD5D9A04FD5C9A299A2F9340
:100050008F939F9321E08EE39CE90197F1F72A9516
:10006000D1F700009F918F912F9129985F985E980A
:100070005D985C9803FD5F9A02FD5E9A01FD5D9AB2
:1000800000FD5C9A299A2F938F939F9321E08EE332
:100090009CE90197F1F72A95D1F700009F918F9184
:1000A0002F9129985F985E985D985C980F912F9397
:1000B0008F939F9320E08EE39CE90197F1F72A95B7
:1000C000D1F700009F918F912F910F9303E05F98DC
:1000D0005E985D985C98289807FD5F9A06FD5E9A89
:1000E00005FD5D9A04FD5C9A299A2F938F939F9347
:1000F00021E08EE39CE90197F1F72A95D1F7000002
:100100009F918F912F9129985F985E985D985C9848
:1001100003FD5F9A02FD5E9A01FD5D9A00FD5C9A07
:10012000299A2F938F939F9321E08EE39CE9019767
:10013000F1F72A95D1F700009F918F912F9129987F
:100140005F985E985D985C980F912F938F939F9323
:1001500020E08EE39CE90197F1F72A95D1F70000A2
:100160009F918F912F910F9303E05F985E985D9818
:100170005C98289807FD5F9A06FD5E9A05FD5D9ADA
:1001800004FD5C9A299A2F938F939F9321E08EE32D
:100190009CE90197F1F72A95D1F700009F918F9183
:1001A0002F9129985F985E985D985C9803FD5F9AFF
:1001B00002FD5E9A01FD5D9A00FD5C9A299A2F93DB
:1001C0008F939F9321E08EE39CE90197F1F72A95A5
:1001D000D1F700009F918F912F9129985F985E9899
:1001E0005D985C980F912F938F939F9320E08EE3FF
:1001F0009CE90197F1F72A95D1F700009F918F9123
:100200002F910F9302E05F985E985D985C98289814
:1002100007FD5F9A06FD5E9A05FD5D9A04FD5C9AF6
:10022000299A2F938F939F9321E08EE39CE9019766
:10023000F1F72A95D1F700009F918F912F9129987E
:100240005F985E985D985C9803FD5F9A02FD5E9AE8
:1002500001FD5D9A00FD5C9A299A2F938F939F93DD
:1002600021E08EE39CE90197F1F72A95D1F7000090
:100270009F918F912F9129985F985E985D985C98D7
:100280000F910F9308E25F985E985D985C982898AC
:1002900007FD5F9A06FD5E9A05FD5D9A04FD5C9A76
:1002A000299A2F938F939F9321E08EE39CE90197E6
:1002B000F1F72A95D1F700009F918F912F912998FE
:1002C0005F985E985D985C9803FD5F9A02FD5E9A68
:1002D00001FD5D9A00FD5C9A299A2F938F939F935D
:1002E00021E08EE39CE90197F1F72A95D1F7000010
:1002F0009F918F912F9129985F985E985D985C9857
:100300000F910F930CE05F985E985D985C98289829
:1003100007FD5F9A06FD5E9A05FD5D9A04FD5C9AF5
:10032000299A2F938F939F9321E08EE39CE9019765
:10033000F1F72A95D1F700009F918F912F9129987D
:100340005F985E985D985C9803FD5F9A02FD5E9AE7
:1003500001FD5D9A00FD5C9A299A2F938F939F93DC
:1003600021E08EE39CE90197F1F72A95D1F700008F
:100370009F918F912F9129985F985E985D985C98D6
:100380000F910F9301E05F985E985D985C982898B4
:1003900007FD5F9A06FD5E9A05FD5D9A04FD5C9A75
:1003A000299A2F938F939F9321E08EE39CE90197E5
:1003B000F1F72A95D1F700009F918F912F912998FD
:1003C0005F985E985D985C9803FD5F9A02FD5E9A67
:1003D00001FD5D9A00FD5C9A299A2F938F939F935C
:1003E00021E08EE39CE90197F1F72A95D1F700000F
:1003F0009F918F912F9129985F985E985D985C9856
:100400000F912F938F939F9321E08EE39CE90197A7
:10041000F1F72A95D1F700009F918F912F910F93BB
:1004200006E05F985E985D985C98289807FD5F9A53
:1004300006FD5E9A05FD5D9A04FD5C9A299A2F934C
:100440008F939F9321E08EE39CE90197F1F72A9522
:10045000D1F700009F918F912F9129985F985E9816
:100460005D985C9803FD5F9A02FD5E9A01FD5D9ABE
:1004700000FD5C9A299A2F938F939F9321E08EE33E
:100480009CE90197F1F72A95D1F700009F918F9190
:100490002F9129985F985E985D985C980F912D98A0
:1004A0002F938F939F9322E38EE39CE90197F1F7BB
:1004B0002A95D1F700009F918F912F912D9A0F933C
:1004C0001F9307E610E00093C4001093C50008E1F5
:1004D0000093C10006E00093C2001F910F9109E054
:1004E000009300010F9301E05F985E985D985C981F
:1004F000289807FD5F9A06FD5E9A05FD5D9A04FD4A
:100500005C9A299A2F938F939F9321E08EE39CE925
:100510000197F1F72A95D1F700009F918F912F91C4
:1005200029985F985E985D985C9803FD5F9A02FD3C
:100530005E9A01FD5D9A00FD5C9A299A2F938F9334
:100540009F9321E08EE39CE90197F1F72A95D1F77B
:1005500000009F918F912F9129985F985E985D98E8
:100560005C980F912F938F939F9321E08EE39CE9EA
:100570000197F1F72A95D1F700009F918F912F9164
:100580000F9302E05F985E985D985C98289807FD4D
:100590005F9A06FD5E9A05FD5D9A04FD5C9A299AB4
:1005A0002F938F939F9321E08EE39CE90197F1F7BE
:1005B0002A95D1F700009F918F912F9129985F98EC
:1005C0005E985D985C9803FD5F9A02FD5E9A01FD5E
:1005D0005D9A00FD5C9A299A2F938F939F9321E057
:1005E0008EE39CE90197F1F72A95D1F700009F91DE
:1005F0008F912F9129985F985E985D985C980F91E4
:100600002F938F939F9321E08EE39CE90197F1F75D
:100610002A95D1F700009F918F912F9100910001B1
:10062000FF920F931F932F933F93CF93DF93EF93FB
:10063000002F302FC0E0D0E0E0E01AE02F93FF1849
:1006400029E0001F2A9509F408C0FF1CF11A18F4CC
:10065000F10E8894F6CF0894F4CF2F91CF2D1AE0A5
:100660002F93FF1829E0001F2A9509F408C0FF1CEA
:10067000F11A18F4F10E8894F6CF0894F4CF2F9164
:10068000DF2D1AE02F93FF1829E0001F2A9509F4A7
:1006900008C0FF1CF11A18F4F10E8894F6CF0894E4
:1006A000F4CF2F91EF2D20E010E3203029F02130FE
:1006B00041F0223059F04EC0343648F1E10F0E2F90
:1006C00008C03A3020F1D10F0D2F03C0C10F0C2FFD
:1006D00000C05F985E985D985C98289A07FD5F9AC5
:1006E00006FD5E9A05FD5D9A04FD5C9A299A2F939A
:1006F0008F939F9321E08EE39CE90197F1F72A9570
:10070000D1F700009F918F912F91299801C020C0AF
:100710005F985E985D985C9803FD5F9A02FD5E9A13
:1007200001FD5D9A00FD5C9A299A2F938F939F9308
:1007300021E08EE39CE90197F1F72A95D1F70000BB
:100740009F918F912F9129985F985E985D985C9802
:100750002395ABCFEF91DF91CF913F912F911F91D7
:100760000F91FF90009100010A95009300012F93D3
:100770008F939F9324E68EE39CE90197F1F72A95E6
:10078000D1F700009F918F912F91009100010030CF
:1007900009F0A8CE00E02F938F939F932AEF8EE36A
:1007A0009CE90197F1F72A95D1F700009F918F916D
:1007B0002F910F9301E05F985E985D985C98289860
:1007C00007FD5F9A06FD5E9A05FD5D9A04FD5C9A41
:1007D000299A2F938F939F9321E08EE39CE90197B1
:1007E000F1F72A95D1F700009F918F912F912998C9
:1007F0005F985E985D985C9803FD5F9A02FD5E9A33
:1008000001FD5D9A00FD5C9A299A2F938F939F9327
:1008100021E08EE39CE90197F1F72A95D1F70000DA
:100820009F918F912F9129985F985E985D985C9821
:100830000F912F938F939F9324E68EE39CE901976A
:10084000F1F72A95D1F700009F918F912F91009198
:10085000C00007FF03C00091C60001C000E00030E7
:1008600009F001C097CF0F93002F5F985E985D98B5
:100870005C9807FD5F9A06FD5E9A05FD5D9A04FD92
:100880005C9A289A299A2F938F939F9321E08EE365
:100890009CE90197F1F72A95D1F700009F918F917C
:1008A0002F9129985F985E985D985C9803FD5F9AF8
:1008B00002FD5E9A01FD5D9A00FD5C9A299A2F93D4
:1008C0008F939F9321E08EE39CE90197F1F72A959E
:1008D000D1F700009F918F912F9129985F985E9892
:0A08E0005D985C980F91B3CFFFCF35
:00000001FF
